{"abi":[{"type":"constructor","inputs":[],"stateMutability":"nonpayable"},{"type":"function","name":"ADJUSTMENT_COOLDOWN","inputs":[],"outputs":[{"name":"","type":"uint256","internalType":"uint256"}],"stateMutability":"view"},{"type":"function","name":"MAX_ADJUSTMENT_THRESHOLD","inputs":[],"outputs":[{"name":"","type":"uint256","internalType":"uint256"}],"stateMutability":"view"},{"type":"function","name":"MIN_ADJUSTMENT_THRESHOLD","inputs":[],"outputs":[{"name":"","type":"uint256","internalType":"uint256"}],"stateMutability":"view"},{"type":"function","name":"adjustPosition","inputs":[{"name":"positionId","type":"bytes32","internalType":"bytes32"},{"name":"yieldBPS","type":"uint256","internalType":"uint256"},{"name":"oldTickLower","type":"int24","internalType":"int24"},{"name":"oldTickUpper","type":"int24","internalType":"int24"},{"name":"newTickLower","type":"int24","internalType":"int24"},{"name":"newTickUpper","type":"int24","internalType":"int24"}],"outputs":[],"stateMutability":"nonpayable"},{"type":"function","name":"isPositionRegistered","inputs":[{"name":"positionId","type":"bytes32","internalType":"bytes32"}],"outputs":[{"name":"","type":"bool","internalType":"bool"}],"stateMutability":"view"},{"type":"function","name":"owner","inputs":[],"outputs":[{"name":"","type":"address","internalType":"address"}],"stateMutability":"view"},{"type":"function","name":"positions","inputs":[{"name":"","type":"bytes32","internalType":"bytes32"}],"outputs":[{"name":"","type":"bool","internalType":"bool"}],"stateMutability":"view"},{"type":"function","name":"registerPosition","inputs":[{"name":"positionId","type":"bytes32","internalType":"bytes32"},{"name":"owner","type":"address","internalType":"address"},{"name":"lstToken","type":"address","internalType":"address"},{"name":"tickLower","type":"int24","internalType":"int24"},{"name":"tickUpper","type":"int24","internalType":"int24"}],"outputs":[],"stateMutability":"nonpayable"},{"type":"function","name":"version","inputs":[],"outputs":[{"name":"","type":"string","internalType":"string"}],"stateMutability":"pure"},{"type":"event","name":"PositionAdjusted","inputs":[{"name":"positionId","type":"bytes32","indexed":true,"internalType":"bytes32"},{"name":"owner","type":"address","indexed":true,"internalType":"address"},{"name":"oldTickLower","type":"int24","indexed":false,"internalType":"int24"},{"name":"oldTickUpper","type":"int24","indexed":false,"internalType":"int24"},{"name":"newTickLower","type":"int24","indexed":false,"internalType":"int24"},{"name":"newTickUpper","type":"int24","indexed":false,"internalType":"int24"},{"name":"yieldBPS","type":"uint256","indexed":false,"internalType":"uint256"},{"name":"estimatedILPrevented","type":"uint256","indexed":false,"internalType":"uint256"}],"anonymous":false},{"type":"event","name":"PositionRegistered","inputs":[{"name":"positionId","type":"bytes32","indexed":true,"internalType":"bytes32"},{"name":"owner","type":"address","indexed":true,"internalType":"address"},{"name":"lstToken","type":"address","indexed":true,"internalType":"address"},{"name":"tickLower","type":"int24","indexed":false,"internalType":"int24"},{"name":"tickUpper","type":"int24","indexed":false,"internalType":"int24"}],"anonymous":false}],"bytecode":{"object":"0x60a0806040523461002a573360805261056b908161002f8239608051818181610138015261041f0152f35b5f80fdfe6080604090808252600480361015610015575f80fd5b5f3560e01c918263514ea4bf146104ec5750816354fd4d501461044e5781638da5cb5b1461040b578163b5f1b1da146103e0578163b9593325146102a7578163c6caa5e7146100d957508063e7db83da146100bd578063ea2d4736146100a25763f19ba39a14610083575f80fd5b3461009e575f36600319011261009e57602090516154608152f35b5f80fd5b503461009e575f36600319011261009e5760209051600a8152f35b503461009e575f36600319011261009e57602090516101f48152f35b90503461009e5760c036600319011261009e5780359060243590604435918260020b80930361009e5761010a610515565b94610113610525565b9060a435918260020b80930361009e57865f525f60205260ff825f20541615610264577f00000000000000000000000000000000000000000000000000000000000000006001600160a01b0316973389900361022157600a85106101e657848002958587048614861517156101d357508251968752600290810b60208801520b9085015260608401526080830152612710900460a08201527f661faf9dd7716936b77a3b7730308783b9041a7a6ba37e0e454817f057b50a1a9060c090a3005b601190634e487b7160e01b5f525260245ffd5b825162461bcd60e51b81526020818801526015602482015274165a595b190818995b1bddc81d1a1c995cda1bdb19605a1b6044820152606490fd5b825162461bcd60e51b8152602081880152601e60248201527f4f6e6c79206f776e65722063616e2061646a75737420706f736974696f6e00006044820152606490fd5b815162461bcd60e51b8152602081870152601760248201527f506f736974696f6e206e6f7420726567697374657265640000000000000000006044820152606490fd5b823461009e5760a036600319011261009e576001600160a01b039160243583811692823592909184900361009e5760443594851680950361009e576102ea610515565b906102f3610525565b9085330361039d57845f525f60205260ff845f20541661035a5750907fa709ac07837c4e618bd403c479542942bd017b961b11be8e3bc355bfb963746d9291845f525f602052825f20600160ff1982541617905582519160020b825260020b6020820152a4005b606490602085519162461bcd60e51b8352820152601b60248201527f506f736974696f6e20616c7265616479207265676973746572656400000000006044820152fd5b606490602085519162461bcd60e51b8352820152602060248201527f4f6e6c79206f776e65722063616e20726567697374657220706f736974696f6e6044820152fd5b823461009e57602036600319011261009e57602091355f525f825260ff815f20541690519015158152f35b823461009e575f36600319011261009e57517f00000000000000000000000000000000000000000000000000000000000000006001600160a01b03168152602090f35b823461009e575f36600319011261009e578051918183019083821067ffffffffffffffff8311176104d957508152600582526020640312e302e360dc1b60208401528151928391602083528151918260208501525f5b8381106104c35750505f83830185015250601f01601f19168101030190f35b81810183015187820187015286945082016104a4565b604190634e487b7160e01b5f525260245ffd5b91503461009e57602036600319011261009e5760209260ff91355f525f84525f20541615158152f35b606435908160020b820361009e57565b608435908160020b820361009e5756fea264697066735822122020708489fdd9b5baf82eca685e555ea4f900cac6a8d078edf45e583f6f6438d564736f6c63430008180033","linkReferences":{}},"methodIdentifiers":{"ADJUSTMENT_COOLDOWN()":"f19ba39a","MAX_ADJUSTMENT_THRESHOLD()":"e7db83da","MIN_ADJUSTMENT_THRESHOLD()":"ea2d4736","adjustPosition(bytes32,uint256,int24,int24,int24,int24)":"c6caa5e7","isPositionRegistered(bytes32)":"b5f1b1da","owner()":"8da5cb5b","positions(bytes32)":"514ea4bf","registerPosition(bytes32,address,address,int24,int24)":"b9593325","version()":"54fd4d50"},"id":0}