{"abi":[{"type":"constructor","inputs":[{"name":"_poolManager","type":"address","internalType":"contract IPoolManager"},{"name":"_yieldSyncAVS","type":"address","internalType":"contract IYieldSyncAVS"}],"stateMutability":"nonpayable"},{"type":"function","name":"ADJUSTMENT_COOLDOWN","inputs":[],"outputs":[{"name":"","type":"uint256","internalType":"uint256"}],"stateMutability":"view"},{"type":"function","name":"BASIS_POINTS","inputs":[],"outputs":[{"name":"","type":"uint256","internalType":"uint256"}],"stateMutability":"view"},{"type":"function","name":"MAX_ADJUSTMENT_THRESHOLD","inputs":[],"outputs":[{"name":"","type":"uint256","internalType":"uint256"}],"stateMutability":"view"},{"type":"function","name":"MIN_ADJUSTMENT_THRESHOLD","inputs":[],"outputs":[{"name":"","type":"uint256","internalType":"uint256"}],"stateMutability":"view"},{"type":"function","name":"afterAddLiquidity","inputs":[{"name":"sender","type":"address","internalType":"address"},{"name":"key","type":"tuple","internalType":"struct PoolKey","components":[{"name":"currency0","type":"address","internalType":"Currency"},{"name":"currency1","type":"address","internalType":"Currency"},{"name":"fee","type":"uint24","internalType":"uint24"},{"name":"tickSpacing","type":"int24","internalType":"int24"},{"name":"hooks","type":"address","internalType":"contract IHooks"}]},{"name":"params","type":"tuple","internalType":"struct ModifyLiquidityParams","components":[{"name":"tickLower","type":"int24","internalType":"int24"},{"name":"tickUpper","type":"int24","internalType":"int24"},{"name":"liquidityDelta","type":"int256","internalType":"int256"},{"name":"salt","type":"bytes32","internalType":"bytes32"}]},{"name":"delta","type":"int256","internalType":"BalanceDelta"},{"name":"feesAccrued","type":"int256","internalType":"BalanceDelta"},{"name":"hookData","type":"bytes","internalType":"bytes"}],"outputs":[{"name":"","type":"bytes4","internalType":"bytes4"},{"name":"","type":"int256","internalType":"BalanceDelta"}],"stateMutability":"nonpayable"},{"type":"function","name":"afterDonate","inputs":[{"name":"sender","type":"address","internalType":"address"},{"name":"key","type":"tuple","internalType":"struct PoolKey","components":[{"name":"currency0","type":"address","internalType":"Currency"},{"name":"currency1","type":"address","internalType":"Currency"},{"name":"fee","type":"uint24","internalType":"uint24"},{"name":"tickSpacing","type":"int24","internalType":"int24"},{"name":"hooks","type":"address","internalType":"contract IHooks"}]},{"name":"amount0","type":"uint256","internalType":"uint256"},{"name":"amount1","type":"uint256","internalType":"uint256"},{"name":"hookData","type":"bytes","internalType":"bytes"}],"outputs":[{"name":"","type":"bytes4","internalType":"bytes4"}],"stateMutability":"nonpayable"},{"type":"function","name":"afterInitialize","inputs":[{"name":"sender","type":"address","internalType":"address"},{"name":"key","type":"tuple","internalType":"struct PoolKey","components":[{"name":"currency0","type":"address","internalType":"Currency"},{"name":"currency1","type":"address","internalType":"Currency"},{"name":"fee","type":"uint24","internalType":"uint24"},{"name":"tickSpacing","type":"int24","internalType":"int24"},{"name":"hooks","type":"address","internalType":"contract IHooks"}]},{"name":"sqrtPriceX96","type":"uint160","internalType":"uint160"},{"name":"tick","type":"int24","internalType":"int24"}],"outputs":[{"name":"","type":"bytes4","internalType":"bytes4"}],"stateMutability":"nonpayable"},{"type":"function","name":"afterInitialize","inputs":[{"name":"","type":"address","internalType":"address"},{"name":"key","type":"tuple","internalType":"struct PoolKey","components":[{"name":"currency0","type":"address","internalType":"Currency"},{"name":"currency1","type":"address","internalType":"Currency"},{"name":"fee","type":"uint24","internalType":"uint24"},{"name":"tickSpacing","type":"int24","internalType":"int24"},{"name":"hooks","type":"address","internalType":"contract IHooks"}]},{"name":"","type":"uint160","internalType":"uint160"},{"name":"","type":"int24","internalType":"int24"},{"name":"","type":"bytes","internalType":"bytes"}],"outputs":[{"name":"","type":"bytes4","internalType":"bytes4"}],"stateMutability":"nonpayable"},{"type":"function","name":"afterRemoveLiquidity","inputs":[{"name":"sender","type":"address","internalType":"address"},{"name":"key","type":"tuple","internalType":"struct PoolKey","components":[{"name":"currency0","type":"address","internalType":"Currency"},{"name":"currency1","type":"address","internalType":"Currency"},{"name":"fee","type":"uint24","internalType":"uint24"},{"name":"tickSpacing","type":"int24","internalType":"int24"},{"name":"hooks","type":"address","internalType":"contract IHooks"}]},{"name":"params","type":"tuple","internalType":"struct ModifyLiquidityParams","components":[{"name":"tickLower","type":"int24","internalType":"int24"},{"name":"tickUpper","type":"int24","internalType":"int24"},{"name":"liquidityDelta","type":"int256","internalType":"int256"},{"name":"salt","type":"bytes32","internalType":"bytes32"}]},{"name":"delta","type":"int256","internalType":"BalanceDelta"},{"name":"feesAccrued","type":"int256","internalType":"BalanceDelta"},{"name":"hookData","type":"bytes","internalType":"bytes"}],"outputs":[{"name":"","type":"bytes4","internalType":"bytes4"},{"name":"","type":"int256","internalType":"BalanceDelta"}],"stateMutability":"nonpayable"},{"type":"function","name":"afterSwap","inputs":[{"name":"sender","type":"address","internalType":"address"},{"name":"key","type":"tuple","internalType":"struct PoolKey","components":[{"name":"currency0","type":"address","internalType":"Currency"},{"name":"currency1","type":"address","internalType":"Currency"},{"name":"fee","type":"uint24","internalType":"uint24"},{"name":"tickSpacing","type":"int24","internalType":"int24"},{"name":"hooks","type":"address","internalType":"contract IHooks"}]},{"name":"params","type":"tuple","internalType":"struct SwapParams","components":[{"name":"zeroForOne","type":"bool","internalType":"bool"},{"name":"amountSpecified","type":"int256","internalType":"int256"},{"name":"sqrtPriceLimitX96","type":"uint160","internalType":"uint160"}]},{"name":"delta","type":"int256","internalType":"BalanceDelta"},{"name":"hookData","type":"bytes","internalType":"bytes"}],"outputs":[{"name":"","type":"bytes4","internalType":"bytes4"},{"name":"","type":"int128","internalType":"int128"}],"stateMutability":"nonpayable"},{"type":"function","name":"beforeAddLiquidity","inputs":[{"name":"sender","type":"address","internalType":"address"},{"name":"key","type":"tuple","internalType":"struct PoolKey","components":[{"name":"currency0","type":"address","internalType":"Currency"},{"name":"currency1","type":"address","internalType":"Currency"},{"name":"fee","type":"uint24","internalType":"uint24"},{"name":"tickSpacing","type":"int24","internalType":"int24"},{"name":"hooks","type":"address","internalType":"contract IHooks"}]},{"name":"params","type":"tuple","internalType":"struct ModifyLiquidityParams","components":[{"name":"tickLower","type":"int24","internalType":"int24"},{"name":"tickUpper","type":"int24","internalType":"int24"},{"name":"liquidityDelta","type":"int256","internalType":"int256"},{"name":"salt","type":"bytes32","internalType":"bytes32"}]},{"name":"hookData","type":"bytes","internalType":"bytes"}],"outputs":[{"name":"","type":"bytes4","internalType":"bytes4"}],"stateMutability":"nonpayable"},{"type":"function","name":"beforeDonate","inputs":[{"name":"sender","type":"address","internalType":"address"},{"name":"key","type":"tuple","internalType":"struct PoolKey","components":[{"name":"currency0","type":"address","internalType":"Currency"},{"name":"currency1","type":"address","internalType":"Currency"},{"name":"fee","type":"uint24","internalType":"uint24"},{"name":"tickSpacing","type":"int24","internalType":"int24"},{"name":"hooks","type":"address","internalType":"contract IHooks"}]},{"name":"amount0","type":"uint256","internalType":"uint256"},{"name":"amount1","type":"uint256","internalType":"uint256"},{"name":"hookData","type":"bytes","internalType":"bytes"}],"outputs":[{"name":"","type":"bytes4","internalType":"bytes4"}],"stateMutability":"nonpayable"},{"type":"function","name":"beforeInitialize","inputs":[{"name":"sender","type":"address","internalType":"address"},{"name":"key","type":"tuple","internalType":"struct PoolKey","components":[{"name":"currency0","type":"address","internalType":"Currency"},{"name":"currency1","type":"address","internalType":"Currency"},{"name":"fee","type":"uint24","internalType":"uint24"},{"name":"tickSpacing","type":"int24","internalType":"int24"},{"name":"hooks","type":"address","internalType":"contract IHooks"}]},{"name":"sqrtPriceX96","type":"uint160","internalType":"uint160"}],"outputs":[{"name":"","type":"bytes4","internalType":"bytes4"}],"stateMutability":"nonpayable"},{"type":"function","name":"beforeRemoveLiquidity","inputs":[{"name":"sender","type":"address","internalType":"address"},{"name":"key","type":"tuple","internalType":"struct PoolKey","components":[{"name":"currency0","type":"address","internalType":"Currency"},{"name":"currency1","type":"address","internalType":"Currency"},{"name":"fee","type":"uint24","internalType":"uint24"},{"name":"tickSpacing","type":"int24","internalType":"int24"},{"name":"hooks","type":"address","internalType":"contract IHooks"}]},{"name":"params","type":"tuple","internalType":"struct ModifyLiquidityParams","components":[{"name":"tickLower","type":"int24","internalType":"int24"},{"name":"tickUpper","type":"int24","internalType":"int24"},{"name":"liquidityDelta","type":"int256","internalType":"int256"},{"name":"salt","type":"bytes32","internalType":"bytes32"}]},{"name":"hookData","type":"bytes","internalType":"bytes"}],"outputs":[{"name":"","type":"bytes4","internalType":"bytes4"}],"stateMutability":"nonpayable"},{"type":"function","name":"beforeSwap","inputs":[{"name":"sender","type":"address","internalType":"address"},{"name":"key","type":"tuple","internalType":"struct PoolKey","components":[{"name":"currency0","type":"address","internalType":"Currency"},{"name":"currency1","type":"address","internalType":"Currency"},{"name":"fee","type":"uint24","internalType":"uint24"},{"name":"tickSpacing","type":"int24","internalType":"int24"},{"name":"hooks","type":"address","internalType":"contract IHooks"}]},{"name":"params","type":"tuple","internalType":"struct SwapParams","components":[{"name":"zeroForOne","type":"bool","internalType":"bool"},{"name":"amountSpecified","type":"int256","internalType":"int256"},{"name":"sqrtPriceLimitX96","type":"uint160","internalType":"uint160"}]},{"name":"hookData","type":"bytes","internalType":"bytes"}],"outputs":[{"name":"","type":"bytes4","internalType":"bytes4"},{"name":"","type":"int256","internalType":"BeforeSwapDelta"},{"name":"","type":"uint24","internalType":"uint24"}],"stateMutability":"nonpayable"},{"type":"function","name":"configurePool","inputs":[{"name":"poolId","type":"bytes32","internalType":"PoolId"},{"name":"config","type":"tuple","internalType":"struct IYieldSyncHook.LSTConfig","components":[{"name":"lstToken","type":"address","internalType":"address"},{"name":"pairedToken","type":"address","internalType":"address"},{"name":"isLSTToken0","type":"bool","internalType":"bool"},{"name":"adjustmentThresholdBPS","type":"uint256","internalType":"uint256"},{"name":"autoAdjustmentEnabled","type":"bool","internalType":"bool"}]}],"outputs":[],"stateMutability":"nonpayable"},{"type":"function","name":"getHookPermissions","inputs":[],"outputs":[{"name":"","type":"tuple","internalType":"struct Hooks.Permissions","components":[{"name":"beforeInitialize","type":"bool","internalType":"bool"},{"name":"afterInitialize","type":"bool","internalType":"bool"},{"name":"beforeAddLiquidity","type":"bool","internalType":"bool"},{"name":"afterAddLiquidity","type":"bool","internalType":"bool"},{"name":"beforeRemoveLiquidity","type":"bool","internalType":"bool"},{"name":"afterRemoveLiquidity","type":"bool","internalType":"bool"},{"name":"beforeSwap","type":"bool","internalType":"bool"},{"name":"afterSwap","type":"bool","internalType":"bool"},{"name":"beforeDonate","type":"bool","internalType":"bool"},{"name":"afterDonate","type":"bool","internalType":"bool"},{"name":"beforeSwapReturnDelta","type":"bool","internalType":"bool"},{"name":"afterSwapReturnDelta","type":"bool","internalType":"bool"},{"name":"afterAddLiquidityReturnDelta","type":"bool","internalType":"bool"},{"name":"afterRemoveLiquidityReturnDelta","type":"bool","internalType":"bool"}]}],"stateMutability":"pure"},{"type":"function","name":"getPositionHealth","inputs":[{"name":"positionId","type":"bytes32","internalType":"bytes32"}],"outputs":[{"name":"currentYieldDrift","type":"uint256","internalType":"uint256"},{"name":"needsAdjustment","type":"bool","internalType":"bool"},{"name":"potentialILPrevention","type":"uint256","internalType":"uint256"},{"name":"timeSinceLastAdjustment","type":"uint256","internalType":"uint256"}],"stateMutability":"view"},{"type":"function","name":"manuallyAdjustPosition","inputs":[{"name":"positionId","type":"bytes32","internalType":"bytes32"}],"outputs":[],"stateMutability":"nonpayable"},{"type":"function","name":"owner","inputs":[],"outputs":[{"name":"","type":"address","internalType":"address"}],"stateMutability":"view"},{"type":"function","name":"pause","inputs":[],"outputs":[],"stateMutability":"nonpayable"},{"type":"function","name":"paused","inputs":[],"outputs":[{"name":"","type":"bool","internalType":"bool"}],"stateMutability":"view"},{"type":"function","name":"poolConfigs","inputs":[{"name":"poolId","type":"bytes32","internalType":"PoolId"}],"outputs":[{"name":"","type":"tuple","internalType":"struct IYieldSyncHook.LSTConfig","components":[{"name":"lstToken","type":"address","internalType":"address"},{"name":"pairedToken","type":"address","internalType":"address"},{"name":"isLSTToken0","type":"bool","internalType":"bool"},{"name":"adjustmentThresholdBPS","type":"uint256","internalType":"uint256"},{"name":"autoAdjustmentEnabled","type":"bool","internalType":"bool"}]}],"stateMutability":"view"},{"type":"function","name":"poolManager","inputs":[],"outputs":[{"name":"","type":"address","internalType":"contract IPoolManager"}],"stateMutability":"view"},{"type":"function","name":"positions","inputs":[{"name":"positionId","type":"bytes32","internalType":"bytes32"}],"outputs":[{"name":"","type":"tuple","internalType":"struct PositionAdjustment.PositionData","components":[{"name":"owner","type":"address","internalType":"address"},{"name":"poolId","type":"bytes32","internalType":"PoolId"},{"name":"tickLower","type":"int24","internalType":"int24"},{"name":"tickUpper","type":"int24","internalType":"int24"},{"name":"liquidity","type":"uint128","internalType":"uint128"},{"name":"lstToken","type":"address","internalType":"address"},{"name":"lastYieldAdjustment","type":"uint256","internalType":"uint256"},{"name":"accumulatedYieldBPS","type":"uint256","internalType":"uint256"},{"name":"autoAdjustEnabled","type":"bool","internalType":"bool"}]}],"stateMutability":"view"},{"type":"function","name":"renounceOwnership","inputs":[],"outputs":[],"stateMutability":"nonpayable"},{"type":"function","name":"setAutoAdjustment","inputs":[{"name":"positionId","type":"bytes32","internalType":"bytes32"},{"name":"enabled","type":"bool","internalType":"bool"}],"outputs":[],"stateMutability":"nonpayable"},{"type":"function","name":"totalILPrevented","inputs":[{"name":"","type":"address","internalType":"address"}],"outputs":[{"name":"","type":"uint256","internalType":"uint256"}],"stateMutability":"view"},{"type":"function","name":"totalLiquidity","inputs":[{"name":"","type":"bytes32","internalType":"PoolId"}],"outputs":[{"name":"","type":"uint256","internalType":"uint256"}],"stateMutability":"view"},{"type":"function","name":"transferOwnership","inputs":[{"name":"newOwner","type":"address","internalType":"address"}],"outputs":[],"stateMutability":"nonpayable"},{"type":"function","name":"unpause","inputs":[],"outputs":[],"stateMutability":"nonpayable"},{"type":"function","name":"userLiquidity","inputs":[{"name":"","type":"bytes32","internalType":"PoolId"},{"name":"","type":"address","internalType":"address"}],"outputs":[{"name":"","type":"uint256","internalType":"uint256"}],"stateMutability":"view"},{"type":"function","name":"yieldSyncAVS","inputs":[],"outputs":[{"name":"","type":"address","internalType":"contract IYieldSyncAVS"}],"stateMutability":"view"},{"type":"event","name":"OwnershipTransferred","inputs":[{"name":"previousOwner","type":"address","indexed":true,"internalType":"address"},{"name":"newOwner","type":"address","indexed":true,"internalType":"address"}],"anonymous":false},{"type":"event","name":"Paused","inputs":[{"name":"account","type":"address","indexed":false,"internalType":"address"}],"anonymous":false},{"type":"event","name":"PoolConfigured","inputs":[{"name":"poolId","type":"bytes32","indexed":true,"internalType":"PoolId"},{"name":"lstToken","type":"address","indexed":true,"internalType":"address"},{"name":"pairedToken","type":"address","indexed":true,"internalType":"address"},{"name":"autoAdjustmentEnabled","type":"bool","indexed":false,"internalType":"bool"}],"anonymous":false},{"type":"event","name":"PositionAdjusted","inputs":[{"name":"positionId","type":"bytes32","indexed":true,"internalType":"bytes32"},{"name":"owner","type":"address","indexed":true,"internalType":"address"},{"name":"oldTickLower","type":"int24","indexed":false,"internalType":"int24"},{"name":"oldTickUpper","type":"int24","indexed":false,"internalType":"int24"},{"name":"newTickLower","type":"int24","indexed":false,"internalType":"int24"},{"name":"newTickUpper","type":"int24","indexed":false,"internalType":"int24"},{"name":"yieldBPS","type":"uint256","indexed":false,"internalType":"uint256"},{"name":"estimatedILPrevented","type":"uint256","indexed":false,"internalType":"uint256"}],"anonymous":false},{"type":"event","name":"PositionRegistered","inputs":[{"name":"positionId","type":"bytes32","indexed":true,"internalType":"bytes32"},{"name":"owner","type":"address","indexed":true,"internalType":"address"},{"name":"lstToken","type":"address","indexed":true,"internalType":"address"},{"name":"tickLower","type":"int24","indexed":false,"internalType":"int24"},{"name":"tickUpper","type":"int24","indexed":false,"internalType":"int24"},{"name":"liquidity","type":"uint128","indexed":false,"internalType":"uint128"}],"anonymous":false},{"type":"event","name":"Unpaused","inputs":[{"name":"account","type":"address","indexed":false,"internalType":"address"}],"anonymous":false},{"type":"event","name":"YieldDataUpdated","inputs":[{"name":"lstToken","type":"address","indexed":true,"internalType":"address"},{"name":"yieldRate","type":"uint256","indexed":false,"internalType":"uint256"},{"name":"timestamp","type":"uint256","indexed":false,"internalType":"uint256"}],"anonymous":false},{"type":"error","name":"EnforcedPause","inputs":[]},{"type":"error","name":"ExpectedPause","inputs":[]},{"type":"error","name":"HookNotImplemented","inputs":[]},{"type":"error","name":"NotPoolManager","inputs":[]},{"type":"error","name":"OwnableInvalidOwner","inputs":[{"name":"owner","type":"address","internalType":"address"}]},{"type":"error","name":"OwnableUnauthorizedAccount","inputs":[{"name":"account","type":"address","internalType":"address"}]},{"type":"error","name":"ReentrancyGuardReentrantCall","inputs":[]}],"bytecode":{"object":"0x60c06040523461033d57604051601f61244138819003918201601f19168301916001600160401b0383118484101761034157808492604094855283398101031261033d578051906001600160a01b038216820361033d5760200151906001600160a01b038216820361033d576080525f6101a061007a610355565b8281528260208201528260408201528260608201528260808201528260a08201528260c08201528260e0820152826101008201528261012082015282610140820152826101608201528261018082015201525f6101a06100d8610355565b828152600160208201528260408201526001606082015260016080820152600160a08201528260c08201528260e08201528261010082015282610120820152826101408201528261016082015282610180820152015261200030161580159061032c575b801561031f575b801561030e575b80156102fd575b80156102ec575b80156102e0575b80156102d4575b80156102c8575b80156102bc575b80156102b0575b80156102a4575b8015610298575b801561028c575b6102795760017f9b779b17422d0df92223018b32b4d1fa46e071723d6817e2486d003becc55f00553315610266575f8054336001600160a01b0319821681178355604051939290916001600160a01b0316907f8be0079c531659141344cd1fd0a4f28419497f9722a3daafe3b4186f6b6457e09080a360a0526120cb908161037682396080518181816102920152818161031401528181610366015281816105a40152818161077701528181610c23015281816114330152611489015260a051818181610b4e01528181610e060152611baf0152f35b631e4fbdf760e01b5f525f60045260245ffd5b630732d7b560e51b5f523060045260245ffd5b50600130161515610190565b50600230161515610189565b50600430161515610182565b5060083016151561017b565b50601030161515610174565b5060203016151561016d565b50604030161515610166565b5060803016151561015f565b506101003016151560011415610158565b506102003016151560011415610151565b50610400301615156001141561014a565b5061080030161515610143565b50611000301615156001141561013c565b5f80fd5b634e487b7160e01b5f52604160045260245ffd5b604051906101c082016001600160401b038111838210176103415760405256fe6080806040526004361015610012575f80fd5b5f3560e01c90816307ef21901461165e575080631aa5ab3d1461157e57806321d0ee7014611474578063259982e5146114205780632a79acb31461120457806336436485146111cc5780633f4ba83a14611160578063501c91b2146110d9578063514ea4bf14610f9657806354b7a8f714610f6c578063575e24b414610f1857806358f4968a14610d135780635c975abb14610cef5780636c2bbe7e14610c0c5780636fe7e6eb14610bd4578063715018a614610b7d5780638291909f14610b395780638456cb5914610ac85780638da5cb5b14610aa15780639f063efc1461075f578063a910f80f146105e1578063b47b2fb11461054c578063b6a8b0fa1461027f578063c4e833ce146103e4578063d50600c014610395578063dc4c90d314610351578063dc98354e146102e3578063e1b4af691461027f578063e1f1c4a714610263578063e7db83da14610247578063ea2d47361461022c578063f19ba39a146102105763f2fde38b14610187575f80fd5b3461020c57602036600319011261020c576101a0611726565b6101a8611e74565b6001600160a01b031680156101f9575f80546001600160a01b03198116831782556001600160a01b0316907f8be0079c531659141344cd1fd0a4f28419497f9722a3daafe3b4186f6b6457e09080a3005b631e4fbdf760e01b5f525f60045260245ffd5b5f80fd5b3461020c575f36600319011261020c5760206040516154608152f35b3461020c575f36600319011261020c576020604051600a8152f35b3461020c575f36600319011261020c5760206040516101f48152f35b3461020c575f36600319011261020c5760206040516127108152f35b3461020c5761028d36611872565b5050507f00000000000000000000000000000000000000000000000000000000000000006001600160a01b0316330392506102d491505057630a85dc2960e01b5f5260045ffd5b63570c108560e11b5f5260045ffd5b3461020c5760e036600319011261020c576102fc611726565b5060a036602319011261020c5761031161184c565b507f00000000000000000000000000000000000000000000000000000000000000006001600160a01b031633036102d457630a85dc2960e01b5f5260045ffd5b3461020c575f36600319011261020c576040517f00000000000000000000000000000000000000000000000000000000000000006001600160a01b03168152602090f35b3461020c57604036600319011261020c576024356001600160a01b038116810361020c576004355f52600560205260405f209060018060a01b03165f52602052602060405f2054604051908152f35b3461020c575f36600319011261020c575f6101a060405161040481611917565b8281528260208201528260408201528260608201528260808201528260a08201528260c08201528260e0820152826101008201528261012082015282610140820152826101608201528261018082015201526101c0602060405161046781611917565b5f81528181019060018252604081015f81526060820160018152608083016001815260a084016001815260c085015f815260e08601905f82526101008701925f84526101208801945f86526101408901965f88526101608a01985f8a526101a06101808c019b5f8d52019b5f8d526040519d8e915f835251151591015251151560408d015251151560608c015251151560808b015251151560a08a015251151560c089015251151560e08801525115156101008701525115156101208601525115156101408501525115156101608401525115156101808301525115156101a0820152f35b3461020c5761016036600319011261020c57610566611726565b5060a036602319011261020c5760603660c319011261020c576101443567ffffffffffffffff811161020c576105a0903690600401611750565b50507f00000000000000000000000000000000000000000000000000000000000000006001600160a01b031633036102d457630a85dc2960e01b5f5260045ffd5b3461020c5761012036600319011261020c576105fb611726565b5060a036602319011261020c5761061061184c565b50610619611862565b506101043567ffffffffffffffff811161020c5761063b903690600401611750565b505060a061064836611a36565b2061065a61065536611a36565b611ee9565b9293919093610676575b604051636fe7e6eb60e01b8152602090f35b61072b90600360405191610689836118ca565b6001600160a01b03908116808452968116602080850182815297151560408087019182526032606088019081526001608089018181525f8c8152600290965292909420975188546001600160a01b0319169087161788559951928701805492516001600160a81b0319909316939095169290921790151560a01b60ff60a01b1617909255969551600284015551151591019060ff801983541691151516179055565b7f1c506fc681e3d418c6231125f92ecb81d46dca61eb930fd36ccca400b33f6f6f602060405160018152a480808080610664565b3461020c5761076d366117e2565b50929493925050507f00000000000000000000000000000000000000000000000000000000000000006001600160a01b031633036102d4576107b260a0913690611abd565b2090815f52600260205260405f2090604051916107ce836118ca565b60ff600360018060a01b038354169283865282600182015460018060a01b038116602089015260a01c16151560408701526002810154606087015201541615156080840152151580610a94575b610836575b604080516327c18fbf60e21b81525f6020820152f35b61083f84611e66565b90602085019161084e83611e66565b610859918684611f36565b9261086386611e66565b9161086d84611e66565b95604088013591866001600160801b03841695600160a01b60019003865116996040519361089a856118fa565b600160a01b60019003169a8b85526020850192868452604086019060020b8152606086019260020b8352608086018a815260a0870192835260c087019342855260e08801955f8752610100890197600189525f52600160205260405f2098600160a01b6001900390600160a01b60019003905116166bffffffffffffffffffffffff60a01b8a541617895551600189015560028801925160020b62ffffff198454169062ffffff161783555160020b61096c90839081549060181b65ffffff000000169065ffffff0000001916179055565b51815460309190911b75ffffffffffffffffffffffffffffffff0000000000001675ffffffffffffffffffffffffffffffff00000000000019909116179055516003850180546001600160a01b039092166001600160a01b0319909216919091179055516004840155516005830155516006909101805460ff191691151560ff16919091179055805f52600560205260405f20875f5260205260405f2082815490610a1691611b3c565b90555f52600460205260405f2090815490610a3091611b3c565b9055516001600160a01b031694610a4690611e66565b91610a5090611e66565b6040519260020b835260020b6020830152604082015260607f30e5f1ab461b43f188dafb9dc2dec8b1aad44bc3aceefafa18c490ad3b55143091a480808080610820565b505f60408501351361081b565b3461020c575f36600319011261020c575f546040516001600160a01b039091168152602090f35b3461020c575f36600319011261020c57610ae0611e74565b5f5460ff8160a01c16610b2a5760ff60a01b1916600160a01b175f556040513381527f62e78cea01bee320cd4e420270b5ea74000d11b0c9f74754ebdbfc544b05a25890602090a1005b63d93c066560e01b5f5260045ffd5b3461020c575f36600319011261020c576040517f00000000000000000000000000000000000000000000000000000000000000006001600160a01b03168152602090f35b3461020c575f36600319011261020c57610b95611e74565b5f80546001600160a01b0319811682556001600160a01b03167f8be0079c531659141344cd1fd0a4f28419497f9722a3daafe3b4186f6b6457e08280a3005b3461020c5761010036600319011261020c57610bee611726565b5060a036602319011261020c57610c0361184c565b50610311611862565b3461020c57610c1a366117e2565b509293925050507f00000000000000000000000000000000000000000000000000000000000000006001600160a01b031633036102d45760a0610c606040923690611abd565b209101355f8112610c82575b60408051633615df3f60e11b81525f6020820152f35b600160ff1b8114610cdb575f0391815f52600560205260405f209060018060a01b03165f5260205260405f20610cb9838254611a29565b90555f526004602052610cd160405f20918254611a29565b9055808080610c6c565b634e487b7160e01b5f52601160045260245ffd5b3461020c575f36600319011261020c57602060ff5f5460a01c166040519015158152f35b3461020c57602036600319011261020c576004355f526001602052610e0260405f2060405190610d42826118fa565b60018060a01b03815416908183526020600182015493818101948552610dd16002840154948560020b60408401528560181c60020b60608401526001600160801b03608084019660301c16865260018060a01b036003860154169260a0810193845261010060ff600660048901549860c08501998a52600581015460e086015201541615159101521515611956565b51825160405163bd0d06d560e01b81526001600160a01b039092166004830152602482015294859081906044820190565b03817f00000000000000000000000000000000000000000000000000000000000000006001600160a01b03165afa928315610f0d575f93610ed8575b60809450515f526002602052610ebd610eb5846001600160801b0360405f2095604051610e6a816118ca565b87546001600160a01b0390811682526001890154908116602083015260a01c60ff90811615156040830152600289015460608301819052600390990154161515908a01525116611ead565b915142611a29565b91604051938085521015602084015260408301526060820152f35b92506020843d602011610f05575b81610ef360209383611934565b8101031261020c576080935192610e3e565b3d9150610ee6565b6040513d5f823e3d90fd5b3461020c5761014036600319011261020c57610f32611726565b5060a036602319011261020c5760603660c319011261020c576101243567ffffffffffffffff811161020c576105a0903690600401611750565b3461020c57602036600319011261020c576004355f526004602052602060405f2054604051908152f35b3461020c57602036600319011261020c575f610100604051610fb7816118fa565b8281528260208201528260408201528260608201528260808201528260a08201528260c08201528260e082015201526004355f52600160205261012060405f20604051611003816118fa565b60018060a01b038254169182825260018101546020830190815260028201546001600160801b0360408501918060020b8352606086018160181c60020b815282608088019260301c16825260018060a01b036003870154169360a0880194855260048701549560c0890196875261010060ff600660058b01549a60e08d019b8c5201541699019815158952604051998a525160208a01525160020b60408901525160020b60608801525116608086015260018060a01b0390511660a08501525160c08401525160e0830152511515610100820152f35b3461020c57604036600319011261020c57600435602435801515810361020c575f8281526001602052604090205461115e9290611120906001600160a01b03161515611956565b805f52600160205261113f60018060a01b0360405f20541633146119a2565b5f526001602052600660405f20019060ff801983541691151516179055565b005b3461020c575f36600319011261020c57611178611e74565b5f5460ff8160a01c16156111bd5760ff60a01b19165f556040513381527f5db9ee0a495bf2e6ff9c91a7834c1ba4fdd244a5e8aa4e537bd38aeae4b073aa90602090a1005b638dfc202b60e01b5f5260045ffd5b3461020c57602036600319011261020c576001600160a01b036111ed611726565b165f526003602052602060405f2054604051908152f35b3461020c5760c036600319011261020c5760043560a036602319011261020c5761122c611e74565b6001600160a01b0361123c6119ee565b16156113db57608435600a8110611396576101f48111611351575f8281526002602052604090206001600160a01b036112736119ee565b82546001600160a01b031916911617815560018101916001600160a01b03611299611a04565b84546001600160a01b031916911617835560643592831515840361020c57805460ff60a01b191693151560a01b60ff60a01b16939093179092556112f991600282015560036112e6611a1a565b91019060ff801983541691151516179055565b6113016119ee565b9061130a611a04565b907f1c506fc681e3d418c6231125f92ecb81d46dca61eb930fd36ccca400b33f6f6f6020611336611a1a565b60405190151581526001600160a01b039485169590941693a4005b60405162461bcd60e51b815260206004820152601d60248201527f5969656c6453796e633a207468726573686f6c6420746f6f20686967680000006044820152606490fd5b60405162461bcd60e51b815260206004820152601c60248201527f5969656c6453796e633a207468726573686f6c6420746f6f206c6f77000000006044820152606490fd5b60405162461bcd60e51b815260206004820152601c60248201527f5969656c6453796e633a20696e76616c6964204c535420746f6b656e000000006044820152606490fd5b3461020c5761142e3661177e565b5050507f00000000000000000000000000000000000000000000000000000000000000006001600160a01b0316330391506102d4905057630a85dc2960e01b5f5260045ffd5b3461020c576114823661177e565b50909250507f00000000000000000000000000000000000000000000000000000000000000006001600160a01b031633036102d4576114c460a0913690611abd565b2090815f526002602052608060405f206040516114e0816118ca565b60ff600360018060a01b038454169384845282600182015460018060a01b038116602087015260a01c1615156040850152600281015460608501520154161515928391015215159081611576575b50611546575b60405163021d0ee760e41b8152602090f35b61156f9181611563602061155c61156a95611e66565b9201611e66565b9133611f36565b611b49565b8080611534565b90508361152e565b3461020c57602036600319011261020c576004355f818152600160205260409020546115b4906001600160a01b03161515611956565b805f5260016020526115d360018060a01b0360405f20541633146119a2565b60027f9b779b17422d0df92223018b32b4d1fa46e071723d6817e2486d003becc55f00541461164f576116299060027f9b779b17422d0df92223018b32b4d1fa46e071723d6817e2486d003becc55f0055611b49565b60017f9b779b17422d0df92223018b32b4d1fa46e071723d6817e2486d003becc55f0055005b633ee5aeb560e01b5f5260045ffd5b3461020c57602036600319011261020c5760808161167c5f936118ca565b82815282602082015282604082015282606082015201526004355f52600260205260a060405f206040516116af816118ca565b600180841b0382541691828252600181015460208301600180871b038216815260ff6040850192871c1615158252608060ff60036002860154956060880196875201541694019315158452604051948552600180871b03905116602085015251151560408401525160608301525115156080820152f35b600435906001600160a01b038216820361020c57565b35906001600160a01b038216820361020c57565b9181601f8401121561020c5782359167ffffffffffffffff831161020c576020838186019501011161020c57565b9061016060031983011261020c576004356001600160a01b038116810361020c579160a060231982011261020c57602491608060c31983011261020c5760c491610144359067ffffffffffffffff821161020c576117de91600401611750565b9091565b906101a060031983011261020c576004356001600160a01b038116810361020c579160a060231982011261020c57602491608060c31983011261020c5760c49161014435916101643591610184359067ffffffffffffffff821161020c576117de91600401611750565b60c435906001600160a01b038216820361020c57565b60e435908160020b820361020c57565b61012060031982011261020c576004356001600160a01b038116810361020c579160a060231983011261020c5760249160c4359160e43591610104359067ffffffffffffffff821161020c576117de91600401611750565b60a0810190811067ffffffffffffffff8211176118e657604052565b634e487b7160e01b5f52604160045260245ffd5b610120810190811067ffffffffffffffff8211176118e657604052565b6101c0810190811067ffffffffffffffff8211176118e657604052565b90601f8019910116810190811067ffffffffffffffff8211176118e657604052565b1561195d57565b60405162461bcd60e51b815260206004820152601d60248201527f5969656c6453796e633a20706f736974696f6e206e6f7420666f756e640000006044820152606490fd5b156119a957565b60405162461bcd60e51b815260206004820152601d60248201527f5969656c6453796e633a206e6f7420706f736974696f6e206f776e65720000006044820152606490fd5b6024356001600160a01b038116810361020c5790565b6044356001600160a01b038116810361020c5790565b60a435801515810361020c5790565b91908203918211610cdb57565b60a090602319011261020c5760405190611a4f826118ca565b816024356001600160a01b038116810361020c5781526044356001600160a01b038116810361020c57602082015260643562ffffff8116810361020c5760408201526084358060020b810361020c57606082015260a435906001600160a01b038216820361020c5760800152565b91908260a091031261020c57604051611ad5816118ca565b8092611ae08161173c565b8252611aee6020820161173c565b6020830152604081013562ffffff8116810361020c5760408301526060810135908160020b820361020c57606083019190915260800135906001600160a01b038216820361020c5760800152565b91908201809211610cdb57565b5f81815260016020526040902080549091906001600160a01b0316158015611e57575b611e5357600382015460048084015460405163bd0d06d560e01b81526001600160a01b0390931691830191909152602482018190529092602084806044810103817f00000000000000000000000000000000000000000000000000000000000000006001600160a01b03165afa938415610f0d575f94611e1e575b50600101545f52600260205260405f20604051611c03816118ca565b81546001600160a01b0390811682526001830154908116602083015260a01c60ff908116151560408301526002830154606083018190526003909301541615156080909101528310159081611e07575b50611c5c575050565b805f52600160205260405f2060018101545f52600260205260405f20604051611c84816118ca565b60018060a01b038254168152608060ff600381600186015460018060a01b038116602087015260a01c1615159485604086015260028101546060860152015416151591015260028201938454948560020b918660181c60020b968160021b9482860460041483151715610cdb577f661faf9dd7716936b77a3b7730308783b9041a7a6ba37e0e454817f057b50a1a96611d7f6001600160801b0393611d53868d9560c09b60020b905f14611deb5780611d40611d46928d612077565b97612077565b9687935b60301c16611ead565b875465ffffffffffff191662ffffff86161765ffffff00000060189390931b9290921691909117909655565b42600482015560058101611d94858254611b3c565b905560018060a01b038154165f52600360205260405f20611db6868254611b3c565b905560018060a01b0390541698604051958652602086015260020b604085015260020b6060840152608083015260a0820152a3565b80611df9611dff928d61205a565b9761205a565b968793611d4a565b90506154608101809111610cdb574210155f611c53565b9093506020813d602011611e4b575b81611e3a60209383611934565b8101031261020c5751926001611be7565b3d9150611e2d565b5050565b5060ff60068301541615611b6c565b358060020b810361020c5790565b5f546001600160a01b03163303611e8757565b63118cdaa760e01b5f523360045260245ffd5b81810292918115918404141715610cdb57565b81611ec96305f5e100936001600160801b03611ece9416611e9a565b611e9a565b04604b810290808204604b1490151715610cdb576064900490565b80516020909101516001600160a01b039081169116611f0781611f81565b611f2b57611f1482611f81565b611f245750505f905f905f905f90565b6001925f90565b916001929190600190565b9290916040519260208401946bffffffffffffffffffffffff199060601b168552603484015260e81b605483015260e81b6057820152603a8152611f7b605a82611934565b51902090565b60018060a01b031673ae7ab96520de3a18e5e111b5eaab095312d7fe84811490811561203c575b811561201e575b8115612000575b8115611fe2575b8115611fc7575090565b73e95a203b1a91a908f9b9ce46459d101078c2c3cb91501490565b73f951e335afb289353dc249e82926178eac7ded7881149150611fbd565b73ac3e018457b222d93114458476f3e3416abbe38f81149150611fb6565b73be9895146f7af43049ca1c1ae358b0541ea4970481149150611faf565b73ae78736cd615f374d3085123a210448e74fc639381149150611fa8565b600291820b910b0390627fffff198212627fffff831317610cdb57565b9060020b9060020b0190627fffff198212627fffff831317610cdb5756fea2646970667358221220335276db035e418f8f4f064128301099c4aee407a26a05e1df70f6158dc0954064736f6c634300081b0033","linkReferences":{}},"methodIdentifiers":{"ADJUSTMENT_COOLDOWN()":"f19ba39a","BASIS_POINTS()":"e1f1c4a7","MAX_ADJUSTMENT_THRESHOLD()":"e7db83da","MIN_ADJUSTMENT_THRESHOLD()":"ea2d4736","afterAddLiquidity(address,(address,address,uint24,int24,address),(int24,int24,int256,bytes32),int256,int256,bytes)":"9f063efc","afterDonate(address,(address,address,uint24,int24,address),uint256,uint256,bytes)":"e1b4af69","afterInitialize(address,(address,address,uint24,int24,address),uint160,int24)":"6fe7e6eb","afterInitialize(address,(address,address,uint24,int24,address),uint160,int24,bytes)":"a910f80f","afterRemoveLiquidity(address,(address,address,uint24,int24,address),(int24,int24,int256,bytes32),int256,int256,bytes)":"6c2bbe7e","afterSwap(address,(address,address,uint24,int24,address),(bool,int256,uint160),int256,bytes)":"b47b2fb1","beforeAddLiquidity(address,(address,address,uint24,int24,address),(int24,int24,int256,bytes32),bytes)":"259982e5","beforeDonate(address,(address,address,uint24,int24,address),uint256,uint256,bytes)":"b6a8b0fa","beforeInitialize(address,(address,address,uint24,int24,address),uint160)":"dc98354e","beforeRemoveLiquidity(address,(address,address,uint24,int24,address),(int24,int24,int256,bytes32),bytes)":"21d0ee70","beforeSwap(address,(address,address,uint24,int24,address),(bool,int256,uint160),bytes)":"575e24b4","configurePool(bytes32,(address,address,bool,uint256,bool))":"2a79acb3","getHookPermissions()":"c4e833ce","getPositionHealth(bytes32)":"58f4968a","manuallyAdjustPosition(bytes32)":"1aa5ab3d","owner()":"8da5cb5b","pause()":"8456cb59","paused()":"5c975abb","poolConfigs(bytes32)":"07ef2190","poolManager()":"dc4c90d3","positions(bytes32)":"514ea4bf","renounceOwnership()":"715018a6","setAutoAdjustment(bytes32,bool)":"501c91b2","totalILPrevented(address)":"36436485","totalLiquidity(bytes32)":"54b7a8f7","transferOwnership(address)":"f2fde38b","unpause()":"3f4ba83a","userLiquidity(bytes32,address)":"d50600c0","yieldSyncAVS()":"8291909f"},"id":142}